{
  "_format": "hh-sol-artifact-1",
  "contractName": "Maintenance",
  "sourceName": "contracts/Maintenance.sol",
  "abi": [
    {
      "anonymous": false,
      "inputs": [
        {
          "indexed": true,
          "internalType": "uint256",
          "name": "requestId",
          "type": "uint256"
        }
      ],
      "name": "MaintenanceCompleted",
      "type": "event"
    },
    {
      "anonymous": false,
      "inputs": [
        {
          "indexed": true,
          "internalType": "address",
          "name": "requester",
          "type": "address"
        },
        {
          "indexed": false,
          "internalType": "string",
          "name": "title",
          "type": "string"
        },
        {
          "indexed": false,
          "internalType": "string",
          "name": "description",
          "type": "string"
        },
        {
          "indexed": false,
          "internalType": "enum Maintenance.MaintenanceType",
          "name": "maintenanceType",
          "type": "uint8"
        }
      ],
      "name": "MaintenanceRequested",
      "type": "event"
    },
    {
      "inputs": [
        {
          "internalType": "uint256",
          "name": "_requestId",
          "type": "uint256"
        }
      ],
      "name": "completeMaintenanceRequest",
      "outputs": [],
      "stateMutability": "nonpayable",
      "type": "function"
    },
    {
      "inputs": [
        {
          "internalType": "string",
          "name": "_title",
          "type": "string"
        },
        {
          "internalType": "string",
          "name": "_description",
          "type": "string"
        },
        {
          "internalType": "enum Maintenance.MaintenanceType",
          "name": "_maintenanceType",
          "type": "uint8"
        }
      ],
      "name": "createMaintenanceRequest",
      "outputs": [],
      "stateMutability": "nonpayable",
      "type": "function"
    },
    {
      "inputs": [
        {
          "internalType": "uint256",
          "name": "",
          "type": "uint256"
        }
      ],
      "name": "maintenanceRequests",
      "outputs": [
        {
          "internalType": "address",
          "name": "requester",
          "type": "address"
        },
        {
          "internalType": "string",
          "name": "title",
          "type": "string"
        },
        {
          "internalType": "string",
          "name": "description",
          "type": "string"
        },
        {
          "internalType": "enum Maintenance.MaintenanceType",
          "name": "maintenanceType",
          "type": "uint8"
        },
        {
          "internalType": "bool",
          "name": "isCompleted",
          "type": "bool"
        }
      ],
      "stateMutability": "view",
      "type": "function"
    },
    {
      "inputs": [],
      "name": "requestCount",
      "outputs": [
        {
          "internalType": "uint256",
          "name": "",
          "type": "uint256"
        }
      ],
      "stateMutability": "view",
      "type": "function"
    }
  ],
  "bytecode": "0x608060405234801561001057600080fd5b50610ceb806100206000396000f3fe608060405234801561001057600080fd5b506004361061004c5760003560e01c80635badbe4c146100515780637311599b1461006f578063c7877117146100a3578063fb987862146100bf575b600080fd5b6100596100db565b60405161006691906109eb565b60405180910390f35b610089600480360381019061008491906107e7565b6100e1565b60405161009a959493929190610905565b60405180910390f35b6100bd60048036038101906100b891906107e7565b610271565b005b6100d960048036038101906100d49190610768565b610422565b005b60015481565b600081815481106100f157600080fd5b90600052602060002090600402016000915090508060000160009054906101000a900473ffffffffffffffffffffffffffffffffffffffff169080600101805461013a90610b32565b80601f016020809104026020016040519081016040528092919081815260200182805461016690610b32565b80156101b35780601f10610188576101008083540402835291602001916101b3565b820191906000526020600020905b81548152906001019060200180831161019657829003601f168201915b5050505050908060020180546101c890610b32565b80601f01602080910402602001604051908101604052809291908181526020018280546101f490610b32565b80156102415780601f1061021657610100808354040283529160200191610241565b820191906000526020600020905b81548152906001019060200180831161022457829003601f168201915b5050505050908060030160009054906101000a900460ff16908060030160019054906101000a900460ff16905085565b60015481106102b5576040517f08c379a00000000000000000000000000000000000000000000000000000000081526004016102ac906109cb565b60405180910390fd5b3373ffffffffffffffffffffffffffffffffffffffff1660008281548110610306577f4e487b7100000000000000000000000000000000000000000000000000000000600052603260045260246000fd5b906000526020600020906004020160000160009054906101000a900473ffffffffffffffffffffffffffffffffffffffff1673ffffffffffffffffffffffffffffffffffffffff161461038e576040517f08c379a0000000000000000000000000000000000000000000000000000000008152600401610385906109ab565b60405180910390fd5b6001600082815481106103ca577f4e487b7100000000000000000000000000000000000000000000000000000000600052603260045260246000fd5b906000526020600020906004020160030160016101000a81548160ff021916908315150217905550807f20ab4e48c45b9d30dee64bedb5fc798145aac958711d51938ebbffb156df246460405160405180910390a250565b60006040518060a001604052803373ffffffffffffffffffffffffffffffffffffffff168152602001858152602001848152602001836002811115610490577f4e487b7100000000000000000000000000000000000000000000000000000000600052602160045260246000fd5b8152602001600015158152509050600081908060018154018082558091505060019003906000526020600020906004020160009091909190915060008201518160000160006101000a81548173ffffffffffffffffffffffffffffffffffffffff021916908373ffffffffffffffffffffffffffffffffffffffff160217905550602082015181600101908051906020019061052d929190610633565b50604082015181600201908051906020019061054a929190610633565b5060608201518160030160006101000a81548160ff0219169083600281111561059c577f4e487b7100000000000000000000000000000000000000000000000000000000600052602160045260246000fd5b021790555060808201518160030160016101000a81548160ff0219169083151502179055505050600160008154809291906105d690610b64565b91905055503373ffffffffffffffffffffffffffffffffffffffff167f85ce2ffe73616a4cfcf6ba959e13a62098e10c4fe907fa36d6f0512462119e3f85858560405161062593929190610966565b60405180910390a250505050565b82805461063f90610b32565b90600052602060002090601f01602090048101928261066157600085556106a8565b82601f1061067a57805160ff19168380011785556106a8565b828001600101855582156106a8579182015b828111156106a757825182559160200191906001019061068c565b5b5090506106b591906106b9565b5090565b5b808211156106d25760008160009055506001016106ba565b5090565b60006106e96106e484610a37565b610a06565b90508281526020810184848401111561070157600080fd5b61070c848285610af0565b509392505050565b60008135905061072381610c8e565b92915050565b600082601f83011261073a57600080fd5b813561074a8482602086016106d6565b91505092915050565b60008135905061076281610c9e565b92915050565b60008060006060848603121561077d57600080fd5b600084013567ffffffffffffffff81111561079757600080fd5b6107a386828701610729565b935050602084013567ffffffffffffffff8111156107c057600080fd5b6107cc86828701610729565b92505060406107dd86828701610714565b9150509250925092565b6000602082840312156107f957600080fd5b600061080784828501610753565b91505092915050565b61081981610a83565b82525050565b61082881610a95565b82525050565b61083781610ade565b82525050565b600061084882610a67565b6108528185610a72565b9350610862818560208601610aff565b61086b81610c69565b840191505092915050565b6000610883601b83610a72565b91507f4f6e6c79207265717565737465722063616e20636f6d706c65746500000000006000830152602082019050919050565b60006108c3601283610a72565b91507f496e76616c6964207265717565737420494400000000000000000000000000006000830152602082019050919050565b6108ff81610ad4565b82525050565b600060a08201905061091a6000830188610810565b818103602083015261092c818761083d565b90508181036040830152610940818661083d565b905061094f606083018561082e565b61095c608083018461081f565b9695505050505050565b60006060820190508181036000830152610980818661083d565b90508181036020830152610994818561083d565b90506109a3604083018461082e565b949350505050565b600060208201905081810360008301526109c481610876565b9050919050565b600060208201905081810360008301526109e4816108b6565b9050919050565b6000602082019050610a0060008301846108f6565b92915050565b6000604051905081810181811067ffffffffffffffff82111715610a2d57610a2c610c3a565b5b8060405250919050565b600067ffffffffffffffff821115610a5257610a51610c3a565b5b601f19601f8301169050602081019050919050565b600081519050919050565b600082825260208201905092915050565b6000610a8e82610ab4565b9050919050565b60008115159050919050565b6000819050610aaf82610c7a565b919050565b600073ffffffffffffffffffffffffffffffffffffffff82169050919050565b6000819050919050565b6000610ae982610aa1565b9050919050565b82818337600083830152505050565b60005b83811015610b1d578082015181840152602081019050610b02565b83811115610b2c576000848401525b50505050565b60006002820490506001821680610b4a57607f821691505b60208210811415610b5e57610b5d610c0b565b5b50919050565b6000610b6f82610ad4565b91507fffffffffffffffffffffffffffffffffffffffffffffffffffffffffffffffff821415610ba257610ba1610bad565b5b600182019050919050565b7f4e487b7100000000000000000000000000000000000000000000000000000000600052601160045260246000fd5b7f4e487b7100000000000000000000000000000000000000000000000000000000600052602160045260246000fd5b7f4e487b7100000000000000000000000000000000000000000000000000000000600052602260045260246000fd5b7f4e487b7100000000000000000000000000000000000000000000000000000000600052604160045260246000fd5b6000601f19601f8301169050919050565b60038110610c8b57610c8a610bdc565b5b50565b60038110610c9b57600080fd5b50565b610ca781610ad4565b8114610cb257600080fd5b5056fea264697066735822122050393bd5f38df7e8c645c3b420ef723bb36f3a7261f35ae8b250ea1481298c3764736f6c63430008000033",
  "linkReferences": {},
  "deployedLinkReferences": {}
}